{
  "contractName": "SupplyChain",
  "abi": [
    {
      "constant": true,
      "inputs": [
        {
          "internalType": "uint256",
          "name": "",
          "type": "uint256"
        }
      ],
      "name": "mapTrack",
      "outputs": [
        {
          "internalType": "string",
          "name": "status",
          "type": "string"
        },
        {
          "internalType": "address",
          "name": "manufacturerAddress",
          "type": "address"
        },
        {
          "internalType": "uint256",
          "name": "timestampOfCreatingProduct",
          "type": "uint256"
        },
        {
          "internalType": "uint256",
          "name": "timestampWhenProductWasShipped",
          "type": "uint256"
        },
        {
          "internalType": "address",
          "name": "distributorAddress",
          "type": "address"
        },
        {
          "internalType": "uint256",
          "name": "timestampWhenDistributorAccepted",
          "type": "uint256"
        },
        {
          "internalType": "uint256",
          "name": "timestampWhenDistributorShippedToRetailer",
          "type": "uint256"
        },
        {
          "internalType": "address",
          "name": "retailerAddress",
          "type": "address"
        },
        {
          "internalType": "uint256",
          "name": "timestampRetailerAccepted",
          "type": "uint256"
        }
      ],
      "payable": false,
      "stateMutability": "view",
      "type": "function"
    },
    {
      "constant": false,
      "inputs": [
        {
          "internalType": "string",
          "name": "_email",
          "type": "string"
        },
        {
          "internalType": "string",
          "name": "_name",
          "type": "string"
        },
        {
          "internalType": "string",
          "name": "_typeUser",
          "type": "string"
        }
      ],
      "name": "addUser",
      "outputs": [],
      "payable": false,
      "stateMutability": "nonpayable",
      "type": "function"
    },
    {
      "constant": true,
      "inputs": [],
      "name": "howManyUsers",
      "outputs": [
        {
          "internalType": "uint256",
          "name": "",
          "type": "uint256"
        }
      ],
      "payable": false,
      "stateMutability": "view",
      "type": "function"
    },
    {
      "constant": true,
      "inputs": [
        {
          "internalType": "uint256",
          "name": "_userId",
          "type": "uint256"
        }
      ],
      "name": "getUserByIndex",
      "outputs": [
        {
          "internalType": "string",
          "name": "",
          "type": "string"
        },
        {
          "internalType": "address",
          "name": "",
          "type": "address"
        },
        {
          "internalType": "string",
          "name": "",
          "type": "string"
        },
        {
          "internalType": "string",
          "name": "",
          "type": "string"
        }
      ],
      "payable": false,
      "stateMutability": "view",
      "type": "function"
    },
    {
      "constant": true,
      "inputs": [
        {
          "internalType": "address",
          "name": "_address",
          "type": "address"
        }
      ],
      "name": "getNameByAddress",
      "outputs": [
        {
          "internalType": "string",
          "name": "",
          "type": "string"
        }
      ],
      "payable": false,
      "stateMutability": "view",
      "type": "function"
    },
    {
      "constant": false,
      "inputs": [
        {
          "internalType": "address",
          "name": "_address",
          "type": "address"
        }
      ],
      "name": "checkAddressIsRegistered",
      "outputs": [
        {
          "internalType": "bool",
          "name": "",
          "type": "bool"
        }
      ],
      "payable": false,
      "stateMutability": "nonpayable",
      "type": "function"
    },
    {
      "constant": false,
      "inputs": [
        {
          "internalType": "string",
          "name": "_email",
          "type": "string"
        }
      ],
      "name": "logIn",
      "outputs": [
        {
          "internalType": "bool",
          "name": "",
          "type": "bool"
        },
        {
          "internalType": "string",
          "name": "",
          "type": "string"
        },
        {
          "internalType": "string",
          "name": "",
          "type": "string"
        },
        {
          "internalType": "string",
          "name": "",
          "type": "string"
        }
      ],
      "payable": false,
      "stateMutability": "nonpayable",
      "type": "function"
    },
    {
      "constant": false,
      "inputs": [
        {
          "internalType": "uint256",
          "name": "_productId",
          "type": "uint256"
        },
        {
          "internalType": "string",
          "name": "_productName",
          "type": "string"
        },
        {
          "internalType": "string",
          "name": "_material",
          "type": "string"
        },
        {
          "internalType": "string",
          "name": "_description",
          "type": "string"
        },
        {
          "internalType": "uint256",
          "name": "_quantity",
          "type": "uint256"
        },
        {
          "internalType": "string",
          "name": "_weight",
          "type": "string"
        }
      ],
      "name": "addProduct",
      "outputs": [],
      "payable": false,
      "stateMutability": "nonpayable",
      "type": "function"
    },
    {
      "constant": true,
      "inputs": [],
      "name": "howManyProducts",
      "outputs": [
        {
          "internalType": "uint256",
          "name": "",
          "type": "uint256"
        }
      ],
      "payable": false,
      "stateMutability": "view",
      "type": "function"
    },
    {
      "constant": true,
      "inputs": [
        {
          "internalType": "uint256",
          "name": "_index",
          "type": "uint256"
        }
      ],
      "name": "getProductByIndex",
      "outputs": [
        {
          "internalType": "uint256",
          "name": "",
          "type": "uint256"
        },
        {
          "internalType": "address",
          "name": "",
          "type": "address"
        },
        {
          "internalType": "string",
          "name": "",
          "type": "string"
        },
        {
          "internalType": "string",
          "name": "",
          "type": "string"
        },
        {
          "internalType": "string",
          "name": "",
          "type": "string"
        },
        {
          "internalType": "uint256",
          "name": "",
          "type": "uint256"
        },
        {
          "internalType": "string",
          "name": "",
          "type": "string"
        }
      ],
      "payable": false,
      "stateMutability": "view",
      "type": "function"
    },
    {
      "constant": false,
      "inputs": [
        {
          "internalType": "uint256",
          "name": "_productId",
          "type": "uint256"
        },
        {
          "internalType": "uint256",
          "name": "_consNumber",
          "type": "uint256"
        },
        {
          "internalType": "string",
          "name": "_distributorEmail",
          "type": "string"
        },
        {
          "internalType": "string",
          "name": "_productName",
          "type": "string"
        },
        {
          "internalType": "string",
          "name": "_distributorName",
          "type": "string"
        },
        {
          "internalType": "string",
          "name": "_transporterName",
          "type": "string"
        },
        {
          "internalType": "uint256",
          "name": "_vehRegNumber",
          "type": "uint256"
        }
      ],
      "name": "addShipmentToDistributor",
      "outputs": [],
      "payable": false,
      "stateMutability": "nonpayable",
      "type": "function"
    },
    {
      "constant": true,
      "inputs": [
        {
          "internalType": "uint256",
          "name": "_index",
          "type": "uint256"
        }
      ],
      "name": "getShipmentToDistributorByIndex",
      "outputs": [
        {
          "internalType": "uint256",
          "name": "",
          "type": "uint256"
        },
        {
          "internalType": "uint256",
          "name": "",
          "type": "uint256"
        },
        {
          "internalType": "string",
          "name": "",
          "type": "string"
        },
        {
          "internalType": "string",
          "name": "",
          "type": "string"
        },
        {
          "internalType": "string",
          "name": "",
          "type": "string"
        },
        {
          "internalType": "string",
          "name": "",
          "type": "string"
        },
        {
          "internalType": "uint256",
          "name": "",
          "type": "uint256"
        }
      ],
      "payable": false,
      "stateMutability": "view",
      "type": "function"
    },
    {
      "constant": false,
      "inputs": [
        {
          "internalType": "uint256",
          "name": "_productId",
          "type": "uint256"
        }
      ],
      "name": "checkProductIdExist",
      "outputs": [
        {
          "internalType": "bool",
          "name": "",
          "type": "bool"
        }
      ],
      "payable": false,
      "stateMutability": "nonpayable",
      "type": "function"
    },
    {
      "constant": false,
      "inputs": [
        {
          "internalType": "string",
          "name": "_Email",
          "type": "string"
        }
      ],
      "name": "checkEmailExist",
      "outputs": [
        {
          "internalType": "bool",
          "name": "",
          "type": "bool"
        }
      ],
      "payable": false,
      "stateMutability": "nonpayable",
      "type": "function"
    },
    {
      "constant": false,
      "inputs": [
        {
          "internalType": "uint256",
          "name": "_productId",
          "type": "uint256"
        },
        {
          "internalType": "address",
          "name": "_address",
          "type": "address"
        }
      ],
      "name": "changeOwnerOfProduct",
      "outputs": [
        {
          "internalType": "bool",
          "name": "",
          "type": "bool"
        }
      ],
      "payable": false,
      "stateMutability": "nonpayable",
      "type": "function"
    },
    {
      "constant": false,
      "inputs": [
        {
          "internalType": "uint256",
          "name": "_productIdentity",
          "type": "uint256"
        }
      ],
      "name": "trackByProductId",
      "outputs": [
        {
          "internalType": "string",
          "name": "",
          "type": "string"
        },
        {
          "internalType": "string",
          "name": "",
          "type": "string"
        },
        {
          "internalType": "address",
          "name": "",
          "type": "address"
        },
        {
          "internalType": "uint256",
          "name": "",
          "type": "uint256"
        },
        {
          "internalType": "uint256",
          "name": "",
          "type": "uint256"
        },
        {
          "internalType": "string",
          "name": "",
          "type": "string"
        },
        {
          "internalType": "address",
          "name": "",
          "type": "address"
        },
        {
          "internalType": "uint256",
          "name": "",
          "type": "uint256"
        },
        {
          "internalType": "uint256",
          "name": "",
          "type": "uint256"
        },
        {
          "internalType": "string",
          "name": "",
          "type": "string"
        },
        {
          "internalType": "address",
          "name": "",
          "type": "address"
        },
        {
          "internalType": "uint256",
          "name": "",
          "type": "uint256"
        }
      ],
      "payable": false,
      "stateMutability": "nonpayable",
      "type": "function"
    },
    {
      "constant": false,
      "inputs": [
        {
          "internalType": "uint256",
          "name": "_productIdentity",
          "type": "uint256"
        }
      ],
      "name": "acceptShippmentDistributor",
      "outputs": [
        {
          "internalType": "bool",
          "name": "",
          "type": "bool"
        }
      ],
      "payable": false,
      "stateMutability": "nonpayable",
      "type": "function"
    },
    {
      "constant": false,
      "inputs": [
        {
          "internalType": "uint256",
          "name": "_productIdentity",
          "type": "uint256"
        }
      ],
      "name": "listToAccept",
      "outputs": [
        {
          "internalType": "string",
          "name": "",
          "type": "string"
        }
      ],
      "payable": false,
      "stateMutability": "nonpayable",
      "type": "function"
    },
    {
      "constant": false,
      "inputs": [
        {
          "internalType": "uint256",
          "name": "_productId",
          "type": "uint256"
        },
        {
          "internalType": "uint256",
          "name": "_consNumber",
          "type": "uint256"
        },
        {
          "internalType": "string",
          "name": "_retailerEmail",
          "type": "string"
        },
        {
          "internalType": "string",
          "name": "_productName",
          "type": "string"
        },
        {
          "internalType": "string",
          "name": "_retailerName",
          "type": "string"
        },
        {
          "internalType": "string",
          "name": "_transporterName",
          "type": "string"
        },
        {
          "internalType": "uint256",
          "name": "_vehRegNumber",
          "type": "uint256"
        }
      ],
      "name": "addShipmentToRetailer",
      "outputs": [],
      "payable": false,
      "stateMutability": "nonpayable",
      "type": "function"
    },
    {
      "constant": false,
      "inputs": [
        {
          "internalType": "uint256",
          "name": "_productIdentity",
          "type": "uint256"
        }
      ],
      "name": "acceptShippmentRetailer",
      "outputs": [
        {
          "internalType": "bool",
          "name": "",
          "type": "bool"
        }
      ],
      "payable": false,
      "stateMutability": "nonpayable",
      "type": "function"
    }
  ],
  "bytecode": "0x60806040526000600155600060045560006006556000600755600060145534801561002957600080fd5b50613f94806100396000396000f3fe608060405234801561001057600080fd5b506004361061012c5760003560e01c80637c80bb4f116100ad578063af66352f11610071578063af66352f146103d7578063b8e05f23146103f3578063ec3024b114610423578063f478809214610453578063ff5d32fe1461046f5761012c565b80637c80bb4f146102ed578063801a17d31461031d57806384d35cc91461034d57806395c5fed4146103835780639713127b1461039f5761012c565b8063633ba2f6116100f4578063633ba2f6146102105780636772c6f114610240578063692f7109146102765780636e662a111461029457806370656307146102cf5761012c565b80632d8ff9b7146101315780633484d93f1461014d5780633684d2541461017d57806355ec8e58146101ad5780635d61b73b146101dd575b600080fd5b61014b600480360361014691908101906132e3565b6104a2565b005b6101676004803603610162919081019061306b565b610838565b6040516101749190613854565b60405180910390f35b61019760048036036101929190810190613195565b6108d8565b6040516101a49190613854565b60405180910390f35b6101c760048036036101c29190810190613195565b610a0c565b6040516101d49190613854565b60405180910390f35b6101f760048036036101f291908101906130bd565b610b40565b604051610207949392919061386f565b60405180910390f35b61022a600480360361022591908101906131be565b610e32565b6040516102379190613854565b60405180910390f35b61025a60048036036102559190810190613195565b610ed6565b60405161026d9796959493929190613d40565b60405180910390f35b61027e611207565b60405161028b9190613c9a565b60405180910390f35b6102ae60048036036102a99190810190613195565b611211565b6040516102c69c9b9a99989796959493929190613945565b60405180910390f35b6102d7611611565b6040516102e49190613c9a565b60405180910390f35b6103076004803603610302919081019061306b565b61161b565b60405161031491906138c9565b60405180910390f35b61033760048036036103329190810190613195565b611760565b6040516103449190613854565b60405180910390f35b61036760048036036103629190810190613195565b6117ae565b60405161037a9796959493929190613cb5565b60405180910390f35b61039d600480360361039891908101906130fe565b611b00565b005b6103b960048036036103b49190810190613195565b611c3a565b6040516103ce99989796959493929190613a1b565b60405180910390f35b6103f160048036036103ec91908101906131fa565b611d80565b005b61040d60048036036104089190810190613195565b612288565b60405161041a91906138c9565b60405180910390f35b61043d600480360361043891908101906130bd565b61253e565b60405161044a9190613854565b60405180910390f35b61046d600480360361046891908101906132e3565b612686565b005b61048960048036036104849190810190613195565b612a2d565b60405161049994939291906138eb565b60405180910390f35b600115156104af33610838565b1515146104f1576040517f08c379a00000000000000000000000000000000000000000000000000000000081526004016104e890613c1a565b60405180910390fd5b73__StringUtils___________________________6346bdca9a60008060025481526020019081526020016000206004016040518263ffffffff1660e01b815260040161053e9190613b50565b60206040518083038186803b15801561055657600080fd5b505af415801561056a573d6000803e3d6000fd5b505050506040513d601f19601f8201168201806040525061058e9190810190613094565b6105cd576040517f08c379a00000000000000000000000000000000000000000000000000000000081526004016105c490613c3a565b60405180910390fd5b6105d68561253e565b610615576040517f08c379a000000000000000000000000000000000000000000000000000000000815260040161060c90613bda565b60405180910390fd5b61061d612c8c565b6040518060e001604052808981526020018881526020018781526020018681526020018581526020018481526020018381525090508060136000601454815260200190815260200160002060008201518160000155602082015181600101556040820151816002019080519060200190610698929190612cc9565b5060608201518160030190805190602001906106b5929190612cc9565b5060808201518160040190805190602001906106d2929190612cc9565b5060a08201518160050190805190602001906106ef929190612cc9565b5060c0820151816006015590505042600960008a8152602001908152602001600020600601819055506040518060400160405280601381526020017f5368697070656420746f2052657461696c657200000000000000000000000000815250600960008a81526020019081526020016000206000019080519060200190610777929190612d49565b50600860009054906101000a900473ffffffffffffffffffffffffffffffffffffffff16600960008a815260200190815260200160002060070160006101000a81548173ffffffffffffffffffffffffffffffffffffffff021916908373ffffffffffffffffffffffffffffffffffffffff16021790555061081b88600860009054906101000a900473ffffffffffffffffffffffffffffffffffffffff16610e32565b506014600081548092919060010191905055505050505050505050565b600080600090505b6001548110156108d1578273ffffffffffffffffffffffffffffffffffffffff1660008083815260200190815260200160002060020160009054906101000a900473ffffffffffffffffffffffffffffffffffffffff1673ffffffffffffffffffffffffffffffffffffffff1614156108c4578060028190555060019150506108d3565b8080600101915050610840565b505b919050565b600080600090505b600454811015610a055782600360008381526020019081526020016000206000015414156109f8573373ffffffffffffffffffffffffffffffffffffffff166003600083815260200190815260200160002060010160009054906101000a900473ffffffffffffffffffffffffffffffffffffffff1673ffffffffffffffffffffffffffffffffffffffff1614156109f7576040518060400160405280601781526020017f4163636570746564206279204469737472696275746f720000000000000000008152506009600085815260200190815260200160002060000190805190602001906109d1929190612d49565b504260096000858152602001908152602001600020600501819055506001915050610a07565b5b80806001019150506108e0565b505b919050565b600080600090505b600454811015610b39578260036000838152602001908152602001600020600001541415610b2c573373ffffffffffffffffffffffffffffffffffffffff166003600083815260200190815260200160002060010160009054906101000a900473ffffffffffffffffffffffffffffffffffffffff1673ffffffffffffffffffffffffffffffffffffffff161415610b2b576040518060400160405280601481526020017f41636365707465642062792052657461696c6572000000000000000000000000815250600960008581526020019081526020016000206000019080519060200190610b05929190612d49565b504260096000858152602001908152602001600020600801819055506001915050610b3b565b5b8080600101915050610a14565b505b919050565b6000606080606060008090505b600154811015610e295773__StringUtils___________________________6346bdca9a600080848152602001908152602001600020600101886040518363ffffffff1660e01b8152600401610ba4929190613aaf565b60206040518083038186803b158015610bbc57600080fd5b505af4158015610bd0573d6000803e3d6000fd5b505050506040513d601f19601f82011682018060405250610bf49190810190613094565b15610e1c576001600080838152602001908152602001600020600101600080848152602001908152602001600020600401600080858152602001908152602001600020600301828054600181600116156101000203166002900480601f016020809104026020016040519081016040528092919081815260200182805460018160011615610100020316600290048015610ccf5780601f10610ca457610100808354040283529160200191610ccf565b820191906000526020600020905b815481529060010190602001808311610cb257829003601f168201915b50505050509250818054600181600116156101000203166002900480601f016020809104026020016040519081016040528092919081815260200182805460018160011615610100020316600290048015610d6b5780601f10610d4057610100808354040283529160200191610d6b565b820191906000526020600020905b815481529060010190602001808311610d4e57829003601f168201915b50505050509150808054600181600116156101000203166002900480601f016020809104026020016040519081016040528092919081815260200182805460018160011615610100020316600290048015610e075780601f10610ddc57610100808354040283529160200191610e07565b820191906000526020600020905b815481529060010190602001808311610dea57829003601f168201915b50505050509050945094509450945050610e2b565b8080600101915050610b4d565b505b9193509193565b600080600090505b600454811015610ece578360036000838152602001908152602001600020600001541415610ec157826003600083815260200190815260200160002060010160006101000a81548173ffffffffffffffffffffffffffffffffffffffff021916908373ffffffffffffffffffffffffffffffffffffffff1602179055506001915050610ed0565b8080600101915050610e3a565b505b92915050565b60008060608060608060006005600089815260200190815260200160002060000154600560008a815260200190815260200160002060010154600560008b8152602001908152602001600020600201600560008c8152602001908152602001600020600301600560008d8152602001908152602001600020600401600560008e8152602001908152602001600020600501600560008f815260200190815260200160002060060154848054600181600116156101000203166002900480601f0160208091040260200160405190810160405280929190818152602001828054600181600116156101000203166002900480156110135780601f10610fe857610100808354040283529160200191611013565b820191906000526020600020905b815481529060010190602001808311610ff657829003601f168201915b50505050509450838054600181600116156101000203166002900480601f0160208091040260200160405190810160405280929190818152602001828054600181600116156101000203166002900480156110af5780601f10611084576101008083540402835291602001916110af565b820191906000526020600020905b81548152906001019060200180831161109257829003601f168201915b50505050509350828054600181600116156101000203166002900480601f01602080910402602001604051908101604052809291908181526020018280546001816001161561010002031660029004801561114b5780601f106111205761010080835404028352916020019161114b565b820191906000526020600020905b81548152906001019060200180831161112e57829003601f168201915b50505050509250818054600181600116156101000203166002900480601f0160208091040260200160405190810160405280929190818152602001828054600181600116156101000203166002900480156111e75780601f106111bc576101008083540402835291602001916111e7565b820191906000526020600020905b8154815290600101906020018083116111ca57829003601f168201915b505050505091509650965096509650965096509650919395979092949650565b6000600454905090565b6060806000806000606060008060006060600080600960008e815260200190815260200160002060010160009054906101000a900473ffffffffffffffffffffffffffffffffffffffff16601060006101000a81548173ffffffffffffffffffffffffffffffffffffffff021916908373ffffffffffffffffffffffffffffffffffffffff160217905550600960008e815260200190815260200160002060040160009054906101000a900473ffffffffffffffffffffffffffffffffffffffff16601160006101000a81548173ffffffffffffffffffffffffffffffffffffffff021916908373ffffffffffffffffffffffffffffffffffffffff160217905550600960008e815260200190815260200160002060070160009054906101000a900473ffffffffffffffffffffffffffffffffffffffff16601260006101000a81548173ffffffffffffffffffffffffffffffffffffffff021916908373ffffffffffffffffffffffffffffffffffffffff160217905550600960008e8152602001908152602001600020600001600a90805460018160011615610100020316600290046113c1929190612dc9565b50600960008e815260200190815260200160002060020154600b81905550600960008e815260200190815260200160002060030154600c81905550600960008e815260200190815260200160002060050154600d81905550600960008e815260200190815260200160002060060154600e81905550600960008e815260200190815260200160002060080154600f81905550600a611480601060009054906101000a900473ffffffffffffffffffffffffffffffffffffffff1661161b565b601060009054906101000a900473ffffffffffffffffffffffffffffffffffffffff16600b54600c546114d4601160009054906101000a900473ffffffffffffffffffffffffffffffffffffffff1661161b565b601160009054906101000a900473ffffffffffffffffffffffffffffffffffffffff16600d54600e54611528601260009054906101000a900473ffffffffffffffffffffffffffffffffffffffff1661161b565b601260009054906101000a900473ffffffffffffffffffffffffffffffffffffffff16600f548b8054600181600116156101000203166002900480601f0160208091040260200160405190810160405280929190818152602001828054600181600116156101000203166002900480156115e35780601f106115b8576101008083540402835291602001916115e3565b820191906000526020600020905b8154815290600101906020018083116115c657829003601f168201915b50505050509b509b509b509b509b509b509b509b509b509b509b509b509b5091939597999b5091939597999b565b6000600154905090565b606060008090505b600154811015611759578273ffffffffffffffffffffffffffffffffffffffff1660008083815260200190815260200160002060020160009054906101000a900473ffffffffffffffffffffffffffffffffffffffff1673ffffffffffffffffffffffffffffffffffffffff16141561174c576000808281526020019081526020016000206003018054600181600116156101000203166002900480601f01602080910402602001604051908101604052809291908181526020018280546001816001161561010002031660029004801561173f5780601f106117145761010080835404028352916020019161173f565b820191906000526020600020905b81548152906001019060200180831161172257829003601f168201915b505050505091505061175b565b8080600101915050611623565b505b919050565b600080600090505b6004548110156117a757826003600083815260200190815260200160002060000154141561179a5760019150506117a9565b8080600101915050611768565b505b919050565b6000806060806060600060606003600089815260200190815260200160002060000154600360008a815260200190815260200160002060010160009054906101000a900473ffffffffffffffffffffffffffffffffffffffff16600360008b8152602001908152602001600020600201600360008c8152602001908152602001600020600301600360008d8152602001908152602001600020600401600360008e815260200190815260200160002060050154600360008f8152602001908152602001600020600601848054600181600116156101000203166002900480601f01602080910402602001604051908101604052809291908181526020018280546001816001161561010002031660029004801561190c5780601f106118e15761010080835404028352916020019161190c565b820191906000526020600020905b8154815290600101906020018083116118ef57829003601f168201915b50505050509450838054600181600116156101000203166002900480601f0160208091040260200160405190810160405280929190818152602001828054600181600116156101000203166002900480156119a85780601f1061197d576101008083540402835291602001916119a8565b820191906000526020600020905b81548152906001019060200180831161198b57829003601f168201915b50505050509350828054600181600116156101000203166002900480601f016020809104026020016040519081016040528092919081815260200182805460018160011615610100020316600290048015611a445780601f10611a1957610100808354040283529160200191611a44565b820191906000526020600020905b815481529060010190602001808311611a2757829003601f168201915b50505050509250808054600181600116156101000203166002900480601f016020809104026020016040519081016040528092919081815260200182805460018160011615610100020316600290048015611ae05780601f10611ab557610100808354040283529160200191611ae0565b820191906000526020600020905b815481529060010190602001808311611ac357829003601f168201915b505050505090509650965096509650965096509650919395979092949650565b60001515611b0d33610838565b151514611b1957600080fd5b611b21612e50565b6040518060a0016040528060015481526020018581526020013373ffffffffffffffffffffffffffffffffffffffff168152602001848152602001838152509050806000806001548152602001908152602001600020600082015181600001556020820151816001019080519060200190611b9d929190612cc9565b5060408201518160020160006101000a81548173ffffffffffffffffffffffffffffffffffffffff021916908373ffffffffffffffffffffffffffffffffffffffff1602179055506060820151816003019080519060200190611c01929190612cc9565b506080820151816004019080519060200190611c1e929190612cc9565b5090505060016000815480929190600101919050555050505050565b6009602052806000526040600020600091509050806000018054600181600116156101000203166002900480601f016020809104026020016040519081016040528092919081815260200182805460018160011615610100020316600290048015611ce65780601f10611cbb57610100808354040283529160200191611ce6565b820191906000526020600020905b815481529060010190602001808311611cc957829003601f168201915b5050505050908060010160009054906101000a900473ffffffffffffffffffffffffffffffffffffffff16908060020154908060030154908060040160009054906101000a900473ffffffffffffffffffffffffffffffffffffffff16908060050154908060060154908060070160009054906101000a900473ffffffffffffffffffffffffffffffffffffffff16908060080154905089565b60011515611d8d33610838565b151514611dcf576040517f08c379a0000000000000000000000000000000000000000000000000000000008152600401611dc690613bfa565b60405180910390fd5b73__StringUtils___________________________6346bdca9a60008060025481526020019081526020016000206004016040518263ffffffff1660e01b8152600401611e1c9190613b85565b60206040518083038186803b158015611e3457600080fd5b505af4158015611e48573d6000803e3d6000fd5b505050506040513d601f19601f82011682018060405250611e6c9190810190613094565b611eab576040517f08c379a0000000000000000000000000000000000000000000000000000000008152600401611ea290613c7a565b60405180910390fd5b611eb486611760565b15611ef4576040517f08c379a0000000000000000000000000000000000000000000000000000000008152600401611eeb90613bba565b60405180910390fd5b611efc612e95565b6040518060e001604052808881526020013373ffffffffffffffffffffffffffffffffffffffff168152602001878152602001868152602001858152602001848152602001838152509050806003600060045481526020019081526020016000206000820151816000015560208201518160010160006101000a81548173ffffffffffffffffffffffffffffffffffffffff021916908373ffffffffffffffffffffffffffffffffffffffff1602179055506040820151816002019080519060200190611fca929190612cc9565b506060820151816003019080519060200190611fe7929190612cc9565b506080820151816004019080519060200190612004929190612cc9565b5060a0820151816005015560c082015181600601908051906020019061202b929190612cc9565b50905050612037612ee8565b6040518061012001604052806040518060200160405280600081525081526020013373ffffffffffffffffffffffffffffffffffffffff16815260200142815260200160008152602001600073ffffffffffffffffffffffffffffffffffffffff1681526020016000815260200160008152602001600073ffffffffffffffffffffffffffffffffffffffff1681526020016000815250905080600960008a81526020019081526020016000206000820151816000019080519060200190612100929190612cc9565b5060208201518160010160006101000a81548173ffffffffffffffffffffffffffffffffffffffff021916908373ffffffffffffffffffffffffffffffffffffffff160217905550604082015181600201556060820151816003015560808201518160040160006101000a81548173ffffffffffffffffffffffffffffffffffffffff021916908373ffffffffffffffffffffffffffffffffffffffff16021790555060a0820151816005015560c0820151816006015560e08201518160070160006101000a81548173ffffffffffffffffffffffffffffffffffffffff021916908373ffffffffffffffffffffffffffffffffffffffff16021790555061010082015181600801559050506040518060400160405280600f81526020017f50726f6475637420437265617465640000000000000000000000000000000000815250600960008a8152602001908152602001600020600001908051906020019061226b929190612d49565b506004600081548092919060010191905055505050505050505050565b606073__StringUtils___________________________6346bdca9a600960008581526020019081526020016000206000016040518263ffffffff1660e01b81526004016122d69190613b1b565b60206040518083038186803b1580156122ee57600080fd5b505af4158015612302573d6000803e3d6000fd5b505050506040513d601f19601f820116820180604052506123269190810190613094565b156123e157600960008381526020019081526020016000206000018054600181600116156101000203166002900480601f0160208091040260200160405190810160405280929190818152602001828054600181600116156101000203166002900480156123d55780601f106123aa576101008083540402835291602001916123d5565b820191906000526020600020905b8154815290600101906020018083116123b857829003601f168201915b50505050509050612539565b73__StringUtils___________________________6346bdca9a600960008581526020019081526020016000206000016040518263ffffffff1660e01b815260040161242d9190613ae6565b60206040518083038186803b15801561244557600080fd5b505af4158015612459573d6000803e3d6000fd5b505050506040513d601f19601f8201168201806040525061247d9190810190613094565b1561253857600960008381526020019081526020016000206000018054600181600116156101000203166002900480601f01602080910402602001604051908101604052809291908181526020018280546001816001161561010002031660029004801561252c5780601f106125015761010080835404028352916020019161252c565b820191906000526020600020905b81548152906001019060200180831161250f57829003601f168201915b50505050509050612539565b5b919050565b600080600090505b60015481101561267f5773__StringUtils___________________________6346bdca9a600080848152602001908152602001600020600101856040518363ffffffff1660e01b815260040161259d929190613aaf565b60206040518083038186803b1580156125b557600080fd5b505af41580156125c9573d6000803e3d6000fd5b505050506040513d601f19601f820116820180604052506125ed9190810190613094565b156126725760008082815260200190815260200160002060020160009054906101000a900473ffffffffffffffffffffffffffffffffffffffff16600860006101000a81548173ffffffffffffffffffffffffffffffffffffffff021916908373ffffffffffffffffffffffffffffffffffffffff1602179055506001915050612681565b8080600101915050612546565b505b919050565b6001151561269333610838565b1515146126d5576040517f08c379a00000000000000000000000000000000000000000000000000000000081526004016126cc90613c1a565b60405180910390fd5b73__StringUtils___________________________6346bdca9a60008060025481526020019081526020016000206004016040518263ffffffff1660e01b81526004016127229190613b85565b60206040518083038186803b15801561273a57600080fd5b505af415801561274e573d6000803e3d6000fd5b505050506040513d601f19601f820116820180604052506127729190810190613094565b6127b1576040517f08c379a00000000000000000000000000000000000000000000000000000000081526004016127a890613c7a565b60405180910390fd5b6127ba8561253e565b6127f9576040517f08c379a00000000000000000000000000000000000000000000000000000000081526004016127f090613c5a565b60405180910390fd5b612801612f76565b6040518060e00160405280898152602001888152602001878152602001868152602001858152602001848152602001838152509050806005600060065481526020019081526020016000206000820151816000015560208201518160010155604082015181600201908051906020019061287c929190612cc9565b506060820151816003019080519060200190612899929190612cc9565b5060808201518160040190805190602001906128b6929190612cc9565b5060a08201518160050190805190602001906128d3929190612cc9565b5060c0820151816006015590505042600960008a8152602001908152602001600020600301819055506040518060400160405280601681526020017f5368697070656420746f204469737472696275746f7200000000000000000000815250600960008a8152602001908152602001600020600001908051906020019061295b929190612d49565b50600860009054906101000a900473ffffffffffffffffffffffffffffffffffffffff16600960008a815260200190815260200160002060040160006101000a81548173ffffffffffffffffffffffffffffffffffffffff021916908373ffffffffffffffffffffffffffffffffffffffff1602179055506129ff88600860009054906101000a900473ffffffffffffffffffffffffffffffffffffffff16610e32565b5060066000815480929190600101919050555060026007600082825401925050819055505050505050505050565b6060600060608060008086815260200190815260200160002060010160008087815260200190815260200160002060020160009054906101000a900473ffffffffffffffffffffffffffffffffffffffff16600080888152602001908152602001600020600301600080898152602001908152602001600020600401838054600181600116156101000203166002900480601f016020809104026020016040519081016040528092919081815260200182805460018160011615610100020316600290048015612b3e5780601f10612b1357610100808354040283529160200191612b3e565b820191906000526020600020905b815481529060010190602001808311612b2157829003601f168201915b50505050509350818054600181600116156101000203166002900480601f016020809104026020016040519081016040528092919081815260200182805460018160011615610100020316600290048015612bda5780601f10612baf57610100808354040283529160200191612bda565b820191906000526020600020905b815481529060010190602001808311612bbd57829003601f168201915b50505050509150808054600181600116156101000203166002900480601f016020809104026020016040519081016040528092919081815260200182805460018160011615610100020316600290048015612c765780601f10612c4b57610100808354040283529160200191612c76565b820191906000526020600020905b815481529060010190602001808311612c5957829003601f168201915b5050505050905093509350935093509193509193565b6040518060e00160405280600081526020016000815260200160608152602001606081526020016060815260200160608152602001600081525090565b828054600181600116156101000203166002900490600052602060002090601f016020900481019282601f10612d0a57805160ff1916838001178555612d38565b82800160010185558215612d38579182015b82811115612d37578251825591602001919060010190612d1c565b5b509050612d459190612fb3565b5090565b828054600181600116156101000203166002900490600052602060002090601f016020900481019282601f10612d8a57805160ff1916838001178555612db8565b82800160010185558215612db8579182015b82811115612db7578251825591602001919060010190612d9c565b5b509050612dc59190612fb3565b5090565b828054600181600116156101000203166002900490600052602060002090601f016020900481019282601f10612e025780548555612e3f565b82800160010185558215612e3f57600052602060002091601f016020900482015b82811115612e3e578254825591600101919060010190612e23565b5b509050612e4c9190612fb3565b5090565b6040518060a001604052806000815260200160608152602001600073ffffffffffffffffffffffffffffffffffffffff16815260200160608152602001606081525090565b6040518060e0016040528060008152602001600073ffffffffffffffffffffffffffffffffffffffff16815260200160608152602001606081526020016060815260200160008152602001606081525090565b60405180610120016040528060608152602001600073ffffffffffffffffffffffffffffffffffffffff1681526020016000815260200160008152602001600073ffffffffffffffffffffffffffffffffffffffff1681526020016000815260200160008152602001600073ffffffffffffffffffffffffffffffffffffffff168152602001600081525090565b6040518060e00160405280600081526020016000815260200160608152602001606081526020016060815260200160608152602001600081525090565b612fd591905b80821115612fd1576000816000905550600101612fb9565b5090565b90565b600081359050612fe781613f0c565b92915050565b600081519050612ffc81613f23565b92915050565b600082601f83011261301357600080fd5b813561302661302182613df8565b613dcb565b9150808252602083016020830185838301111561304257600080fd5b61304d838284613eb9565b50505092915050565b60008135905061306581613f3a565b92915050565b60006020828403121561307d57600080fd5b600061308b84828501612fd8565b91505092915050565b6000602082840312156130a657600080fd5b60006130b484828501612fed565b91505092915050565b6000602082840312156130cf57600080fd5b600082013567ffffffffffffffff8111156130e957600080fd5b6130f584828501613002565b91505092915050565b60008060006060848603121561311357600080fd5b600084013567ffffffffffffffff81111561312d57600080fd5b61313986828701613002565b935050602084013567ffffffffffffffff81111561315657600080fd5b61316286828701613002565b925050604084013567ffffffffffffffff81111561317f57600080fd5b61318b86828701613002565b9150509250925092565b6000602082840312156131a757600080fd5b60006131b584828501613056565b91505092915050565b600080604083850312156131d157600080fd5b60006131df85828601613056565b92505060206131f085828601612fd8565b9150509250929050565b60008060008060008060c0878903121561321357600080fd5b600061322189828a01613056565b965050602087013567ffffffffffffffff81111561323e57600080fd5b61324a89828a01613002565b955050604087013567ffffffffffffffff81111561326757600080fd5b61327389828a01613002565b945050606087013567ffffffffffffffff81111561329057600080fd5b61329c89828a01613002565b93505060806132ad89828a01613056565b92505060a087013567ffffffffffffffff8111156132ca57600080fd5b6132d689828a01613002565b9150509295509295509295565b600080600080600080600060e0888a0312156132fe57600080fd5b600061330c8a828b01613056565b975050602061331d8a828b01613056565b965050604088013567ffffffffffffffff81111561333a57600080fd5b6133468a828b01613002565b955050606088013567ffffffffffffffff81111561336357600080fd5b61336f8a828b01613002565b945050608088013567ffffffffffffffff81111561338c57600080fd5b6133988a828b01613002565b93505060a088013567ffffffffffffffff8111156133b557600080fd5b6133c18a828b01613002565b92505060c06133d28a828b01613056565b91505092959891949750929550565b6133ea81613e71565b82525050565b6133f981613e83565b82525050565b600061340a82613e44565b6134148185613e4f565b9350613424818560208601613ec8565b61342d81613efb565b840191505092915050565b600061344382613e44565b61344d8185613e60565b935061345d818560208601613ec8565b61346681613efb565b840191505092915050565b600061347c82613e39565b6134868185613e4f565b9350613496818560208601613ec8565b61349f81613efb565b840191505092915050565b6000815460018116600081146134c757600181146134ed57613531565b607f60028304166134d88187613e60565b955060ff198316865260208601935050613531565b600282046134fb8187613e60565b955061350685613e24565b60005b8281101561352857815481890152600182019150602081019050613509565b80880195505050505b505092915050565b6000613546601983613e4f565b91507f70726f6475637420696420616c726561647920657869737473000000000000006000830152602082019050919050565b6000613586601383613e60565b91507f5368697070656420746f2052657461696c6572000000000000000000000000006000830152602082019050919050565b60006135c6602783613e4f565b91507f52657461696c657220646964206e6f7420726567697374657220696e206f757260008301527f2073797374656d000000000000000000000000000000000000000000000000006020830152604082019050919050565b600061362c601883613e4f565b91507f416472657373206973206e6f74207265676973746572656400000000000000006000830152602082019050919050565b600061366c601983613e4f565b91507f41646472657373206973206e6f742072656769737465726564000000000000006000830152602082019050919050565b60006136ac601f83613e4f565b91507f54686973206163636f756e74206973206e6f74206469737472696275746f72006000830152602082019050919050565b60006136ec601683613e60565b91507f5368697070656420746f204469737472696275746f72000000000000000000006000830152602082019050919050565b600061372c600b83613e60565b91507f4469737472696275746f720000000000000000000000000000000000000000006000830152602082019050919050565b600061376c602a83613e4f565b91507f4469737472696275746f7220646964206e6f7420726567697374657220696e2060008301527f6f75722073797374656d000000000000000000000000000000000000000000006020830152604082019050919050565b60006137d2600c83613e60565b91507f4d616e75666163747572657200000000000000000000000000000000000000006000830152602082019050919050565b6000613812602083613e4f565b91507f54686973206163636f756e74206973206e6f74206d616e7566616374757265726000830152602082019050919050565b61384e81613eaf565b82525050565b600060208201905061386960008301846133f0565b92915050565b600060808201905061388460008301876133f0565b818103602083015261389681866133ff565b905081810360408301526138aa81856133ff565b905081810360608301526138be81846133ff565b905095945050505050565b600060208201905081810360008301526138e381846133ff565b905092915050565b6000608082019050818103600083015261390581876133ff565b905061391460208301866133e1565b818103604083015261392681856133ff565b9050818103606083015261393a81846133ff565b905095945050505050565b6000610180820190508181036000830152613960818f6133ff565b90508181036020830152613974818e6133ff565b9050613983604083018d6133e1565b613990606083018c613845565b61399d608083018b613845565b81810360a08301526139af818a6133ff565b90506139be60c08301896133e1565b6139cb60e0830188613845565b6139d9610100830187613845565b8181036101208301526139ec81866133ff565b90506139fc6101408301856133e1565b613a0a610160830184613845565b9d9c50505050505050505050505050565b6000610120820190508181036000830152613a36818c613471565b9050613a45602083018b6133e1565b613a52604083018a613845565b613a5f6060830189613845565b613a6c60808301886133e1565b613a7960a0830187613845565b613a8660c0830186613845565b613a9360e08301856133e1565b613aa1610100830184613845565b9a9950505050505050505050565b60006040820190508181036000830152613ac981856134aa565b90508181036020830152613add8184613438565b90509392505050565b60006040820190508181036000830152613b0081846134aa565b90508181036020830152613b1381613579565b905092915050565b60006040820190508181036000830152613b3581846134aa565b90508181036020830152613b48816136df565b905092915050565b60006040820190508181036000830152613b6a81846134aa565b90508181036020830152613b7d8161371f565b905092915050565b60006040820190508181036000830152613b9f81846134aa565b90508181036020830152613bb2816137c5565b905092915050565b60006020820190508181036000830152613bd381613539565b9050919050565b60006020820190508181036000830152613bf3816135b9565b9050919050565b60006020820190508181036000830152613c138161361f565b9050919050565b60006020820190508181036000830152613c338161365f565b9050919050565b60006020820190508181036000830152613c538161369f565b9050919050565b60006020820190508181036000830152613c738161375f565b9050919050565b60006020820190508181036000830152613c9381613805565b9050919050565b6000602082019050613caf6000830184613845565b92915050565b600060e082019050613cca600083018a613845565b613cd760208301896133e1565b8181036040830152613ce981886133ff565b90508181036060830152613cfd81876133ff565b90508181036080830152613d1181866133ff565b9050613d2060a0830185613845565b81810360c0830152613d3281846133ff565b905098975050505050505050565b600060e082019050613d55600083018a613845565b613d626020830189613845565b8181036040830152613d7481886133ff565b90508181036060830152613d8881876133ff565b90508181036080830152613d9c81866133ff565b905081810360a0830152613db081856133ff565b9050613dbf60c0830184613845565b98975050505050505050565b6000604051905081810181811067ffffffffffffffff82111715613dee57600080fd5b8060405250919050565b600067ffffffffffffffff821115613e0f57600080fd5b601f19601f8301169050602081019050919050565b60008190508160005260206000209050919050565b600081519050919050565b600081519050919050565b600082825260208201905092915050565b600082825260208201905092915050565b6000613e7c82613e8f565b9050919050565b60008115159050919050565b600073ffffffffffffffffffffffffffffffffffffffff82169050919050565b6000819050919050565b82818337600083830152505050565b60005b83811015613ee6578082015181840152602081019050613ecb565b83811115613ef5576000848401525b50505050565b6000601f19601f8301169050919050565b613f1581613e71565b8114613f2057600080fd5b50565b613f2c81613e83565b8114613f3757600080fd5b50565b613f4381613eaf565b8114613f4e57600080fd5b5056fea365627a7a72315820e6667bff5ff8b6cd3a7086d5bba2e9e4da22acc4ebe298d1c733bc47f88d91516c6578706572696d656e74616cf564736f6c63430005100040",
  "source": "pragma solidity ^0.5.16;\n pragma experimental ABIEncoderV2;\nimport \"./StringUtils.sol\";\n\n\ncontract SupplyChain {\n    \n    struct User{\n        uint userId;\n        string email;\n        address currentAddress;\n        string name;\n        string typeUser;\n    \n    }\n    \n    mapping (uint => User) usersData;\n    uint indexUser = 0;\n \n    \n   \n    \n       \n    function addUser(string memory _email, string memory _name, string memory _typeUser) public {\n      \n        require(checkAddressIsRegistered(msg.sender) == false);\n        User memory addUser = User({userId: indexUser, email: _email,currentAddress:msg.sender, name: _name, typeUser: _typeUser});\n        usersData[indexUser]=addUser;\n        indexUser++;\n        \n    }\n    \n  function howManyUsers() public view returns (uint){\n        return indexUser;\n    }\n    \n\n      \nfunction getUserByIndex(uint _userId) public view returns (string memory,address, string memory, string memory) {\n\n    return (usersData[_userId].email,usersData[_userId].currentAddress, usersData[_userId].name, usersData[_userId].typeUser) ;\n \n}\n\n\nfunction getNameByAddress(address _address) public view returns (string memory) {\nfor (uint256 j=0; j<indexUser; j++){\n        if ((usersData[j].currentAddress) == (_address))   \n            {\n            \n                return ( usersData[j].name) ;\n            }\n           \n        }\n    \n \n}\n\nuint currentIndexOfUser;\n\nfunction checkAddressIsRegistered(address _address) public returns (bool) {\n\n    for (uint256 j=0; j<indexUser; j++){\n        if ((usersData[j].currentAddress) == (_address))   \n            {\n                currentIndexOfUser = j;\n                return true;\n            }\n           \n        }\n}\n\nfunction logIn(string memory _email) public returns (bool , string memory,string memory,string memory) {\n \n  \n    for (uint256 j=0; j<indexUser; j++){\n\n        if (StringUtils.equal(usersData[j].email, _email))   \n        {\n          \n            return (true,usersData[j].email, usersData[j].typeUser,usersData[j].name);\n          \n        }\n        \n            \n        }\n    \n}\n\n\n\n struct Product{\n        uint256 productId;\n        address owner;\n        string productName;\n        string material;\n        string description;\n        uint quantity;\n        string weight;\n\n       \n    }\n    \n    mapping (uint => Product) allProducts;\n    uint indexProduct = 0;\n\n\n    function addProduct(uint _productId,string memory _productName, string memory _material, string memory _description,  uint _quantity, string memory _weight) public  {\n        require((checkAddressIsRegistered(msg.sender) == true),\"Adress is not registered\");\n        require ((StringUtils.equal(usersData[currentIndexOfUser].typeUser, \"Manufacturer\")), \"This account is not manufacturer\");\n        require(!(checkProductIdExist(_productId)), \"product id already exists\");\n        Product memory addProduct = Product({productId: _productId,owner: msg.sender, productName: _productName,  material: _material,\n            description: _description, quantity: _quantity, weight: _weight\n        });\n        allProducts[indexProduct]=addProduct;\n        strTrack memory addProductforTracking = strTrack({status: \"\",manufacturerAddress:msg.sender, timestampOfCreatingProduct: now, \n        timestampWhenProductWasShipped:0, distributorAddress: 0x0000000000000000000000000000000000000000,timestampWhenDistributorAccepted:0,\n            timestampWhenDistributorShippedToRetailer:0, retailerAddress: 0x0000000000000000000000000000000000000000, timestampRetailerAccepted:0\n        });\n        mapTrack[_productId]=addProductforTracking;\n        mapTrack[_productId].status = \"Product Created\";\n        indexProduct++;\n       \n    }\n    \n      function howManyProducts() public view returns (uint){\n        return indexProduct;\n        \n    }\n    \n    \nfunction getProductByIndex(uint _index) public view returns ( uint,address, string memory, string memory,string memory,uint, string memory) {\n \n    return (allProducts[_index].productId,allProducts[_index].owner,allProducts[_index].productName, allProducts[_index].material,\n    allProducts[_index].description,allProducts[_index].quantity,allProducts[_index].weight) ;\n \n}\n\n\n\n struct strToDistributor{\n        uint productId;\n        uint256 consNumber;\n        string distributorEmail;\n        string productName;\n        string distributorName;\n        string transporterName;\n        uint vehRegNumber;\n     \n\n    }\n    \n    mapping (uint => strToDistributor) mapToDistributor;\n    uint indexToDistributor = 0;\n    uint index = 0;\n \n    function addShipmentToDistributor(uint _productId,uint _consNumber,string memory _distributorEmail, string memory _productName,  string memory _distributorName,string memory _transporterName, uint _vehRegNumber) public  {\n        require((checkAddressIsRegistered(msg.sender) == true),\"Address is not registered\");\n        require ((StringUtils.equal(usersData[currentIndexOfUser].typeUser, \"Manufacturer\")), \"This account is not manufacturer\");\n       // require((checkProductIdExist(_productId)), \"product id does not exist\");\n        require((checkEmailExist(_distributorEmail)), \"Distributor did not register in our system\");\n        strToDistributor memory addShipmentToDistributor = strToDistributor({productId: _productId,consNumber: _consNumber , distributorEmail: _distributorEmail,productName: _productName, \n            distributorName: _distributorName, transporterName: _transporterName, vehRegNumber: _vehRegNumber\n        });\n        mapToDistributor[indexToDistributor]=addShipmentToDistributor;\n        mapTrack[_productId].timestampWhenProductWasShipped = now;\n        mapTrack[_productId].status = \"Shipped to Distributor\";\n        mapTrack[_productId].distributorAddress = currentAddress;\n        changeOwnerOfProduct(_productId, currentAddress);\n        indexToDistributor++;\n        index+=2;\n\n        \n       \n    }\n    \n\n    \n   \n    \n    function getShipmentToDistributorByIndex(uint _index) public view returns ( uint,uint,string memory, string memory, string memory,string memory,uint) {\n \n    return (mapToDistributor[_index].productId,mapToDistributor[_index].consNumber,mapToDistributor[_index].distributorEmail, mapToDistributor[_index].productName, \n    mapToDistributor[_index].distributorName, mapToDistributor[_index].transporterName, mapToDistributor[_index].vehRegNumber) ;\n \n}\n\n\nfunction checkProductIdExist(uint _productId) public returns (bool) {\n\n    for (uint256 j=0; j<indexProduct; j++){\n        if ((allProducts[j].productId) == (_productId))   \n            {\n                \n                return true;\n            }\n           \n        }\n}\n\n\naddress currentAddress;\nfunction checkEmailExist(string memory _Email) public returns (bool) {\n\n    for (uint256 j=0; j<indexUser; j++){\n        if (StringUtils.equal(usersData[j].email, _Email))   \n            {\n                currentAddress = usersData[j].currentAddress;\n                return true;\n            }\n           \n        }\n}\n\n\nfunction changeOwnerOfProduct(uint _productId, address _address) public returns (bool) { \n\n    for (uint256 j=0; j<indexProduct; j++){\n        if ((allProducts[j].productId) == (_productId))   \n            {\n                allProducts[j].owner = _address;\n                return true;\n            }\n           \n        }\n}\n\n struct strTrack{\n        string status;\n        address manufacturerAddress;\n        uint timestampOfCreatingProduct;\n        uint timestampWhenProductWasShipped;\n        address distributorAddress;\n        uint timestampWhenDistributorAccepted;\n        uint timestampWhenDistributorShippedToRetailer;\n        address retailerAddress;\n        uint timestampRetailerAccepted;\n\n    }\n  mapping (uint => strTrack) public mapTrack;\n  \n \n   string var1;\n   uint var2;\n   uint var3;\n   uint var4;\n   uint var5;\n   uint var6;\naddress addressManufacturer;\naddress addressDistributor;\naddress addressRetailer;\n   \n  function trackByProductId(uint _productIdentity) public  returns (string memory, string memory,address, uint, uint,string memory, address, uint, uint,string memory ,address,uint) {\n    addressManufacturer = mapTrack[_productIdentity].manufacturerAddress;\n    addressDistributor = mapTrack[_productIdentity].distributorAddress;\n    addressRetailer = mapTrack[_productIdentity].retailerAddress;\n    \n     var1 = mapTrack[_productIdentity].status;\n     var2 = mapTrack[_productIdentity].timestampOfCreatingProduct;\n     var3 = mapTrack[_productIdentity].timestampWhenProductWasShipped;\n     var4 = mapTrack[_productIdentity].timestampWhenDistributorAccepted;\n     var5 = mapTrack[_productIdentity].timestampWhenDistributorShippedToRetailer;\n     var6 = mapTrack[_productIdentity].timestampRetailerAccepted;\n    return (var1,getNameByAddress(addressManufacturer),addressManufacturer,var2, var3,getNameByAddress(addressDistributor),addressDistributor, var4,var5, \n    getNameByAddress(addressRetailer),addressRetailer, var6);\n \n}\n\n\n\n\n\n//Distributor part\n\nfunction acceptShippmentDistributor(uint _productIdentity) public returns(bool) {\n    \n   for (uint256 j=0; j<indexProduct; j++){\n        if ((allProducts[j].productId) == (_productIdentity))   \n            {\n                if ((allProducts[j].owner) == (msg.sender)){\n                    mapTrack[_productIdentity].status = \"Accepted by Distributor\";\n                    mapTrack[_productIdentity].timestampWhenDistributorAccepted = now;\n                    return true;\n                }\n                \n            }\n           \n        }\n \n}\n\nfunction listToAccept(uint _productIdentity) public returns(string memory) {\n    \n    \n    if (StringUtils.equal(mapTrack[_productIdentity].status, \"Shipped to Distributor\" ))   \n            {\n                \n           // if(mapTrack[_productIdentity].distributorAddress == msg.sender){\n                return mapTrack[_productIdentity].status;\n           // }\n            }\n            \n     else if(StringUtils.equal(mapTrack[_productIdentity].status, \"Shipped to Retailer\" ))\n    {\n       // if(mapTrack[_productIdentity].retailerAddress== msg.sender){\n        return mapTrack[_productIdentity].status;\n      //  }\n    }\n\n\n}\n\nstruct strToRetailer{\n        uint productId;\n        uint256 consNumber;\n        string retailerEmail;\n        string productName;\n        string retailerName;\n        string transporterName;\n        uint vehRegNumber;\n     \n\n    }\n    \n    mapping (uint => strToRetailer) mapToRetailer;\n    uint indexToRetailer = 0;\n\nfunction addShipmentToRetailer(uint _productId,uint _consNumber,string memory _retailerEmail, string memory _productName,  string memory _retailerName,string memory _transporterName, uint _vehRegNumber) public  {\n        require((checkAddressIsRegistered(msg.sender) == true),\"Address is not registered\");\n        require ((StringUtils.equal(usersData[currentIndexOfUser].typeUser, \"Distributor\")), \"This account is not distributor\");\n      //  require((checkProductIdExist(_productId)), \"product id does not exist\");\n        require((checkEmailExist(_retailerEmail)), \"Retailer did not register in our system\");\n        strToRetailer memory addShipmentToRetailer = strToRetailer({productId: _productId,consNumber: _consNumber , retailerEmail: _retailerEmail,productName: _productName, \n            retailerName: _retailerName, transporterName: _transporterName, vehRegNumber: _vehRegNumber\n        });\n        mapToRetailer[indexToRetailer]=addShipmentToRetailer;\n        mapTrack[_productId].timestampWhenDistributorShippedToRetailer = now;\n        mapTrack[_productId].status = \"Shipped to Retailer\";\n        mapTrack[_productId].retailerAddress = currentAddress;\n        changeOwnerOfProduct(_productId, currentAddress);\n        indexToRetailer++;\n \n        \n       \n    }\n    \n    \n    //Retailer part\n\nfunction acceptShippmentRetailer(uint _productIdentity) public returns(bool) {\n    \n   for (uint256 j=0; j<indexProduct; j++){\n        if ((allProducts[j].productId) == (_productIdentity))   \n            {\n                if ((allProducts[j].owner) == (msg.sender)){\n                    mapTrack[_productIdentity].status = \"Accepted by Retailer\";\n                    mapTrack[_productIdentity].timestampRetailerAccepted = now;\n                    return true;\n                }\n                \n            }\n           \n        }\n \n}\n\n\n       \n}",
  "sourcePath": "/home/dome/Devel/kku-proj/supply-chain/src/contracts/SupplyChain.sol",
  "compiler": {
    "name": "solc",
    "version": "0.5.16+commit.9c3226ce.Emscripten.clang"
  },
  "schemaVersion": "3.3.4",
  "updatedAt": "2021-02-27T18:39:55.569Z",
  "networkType": "ethereum",
  "devdoc": {
    "methods": {}
  },
  "userdoc": {
    "methods": {}
  }
}