{
  "contractName": "Voting",
  "abi": [
    {
      "inputs": [],
      "payable": false,
      "stateMutability": "nonpayable",
      "type": "constructor"
    },
    {
      "constant": true,
      "inputs": [],
      "name": "admin",
      "outputs": [
        {
          "internalType": "address",
          "name": "",
          "type": "address"
        }
      ],
      "payable": false,
      "stateMutability": "view",
      "type": "function"
    },
    {
      "constant": true,
      "inputs": [
        {
          "internalType": "uint256",
          "name": "",
          "type": "uint256"
        }
      ],
      "name": "ballots",
      "outputs": [
        {
          "internalType": "uint256",
          "name": "id",
          "type": "uint256"
        },
        {
          "internalType": "string",
          "name": "name",
          "type": "string"
        },
        {
          "internalType": "uint256",
          "name": "end",
          "type": "uint256"
        }
      ],
      "payable": false,
      "stateMutability": "view",
      "type": "function"
    },
    {
      "constant": true,
      "inputs": [],
      "name": "nextBallotId",
      "outputs": [
        {
          "internalType": "uint256",
          "name": "",
          "type": "uint256"
        }
      ],
      "payable": false,
      "stateMutability": "view",
      "type": "function"
    },
    {
      "constant": true,
      "inputs": [
        {
          "internalType": "address",
          "name": "",
          "type": "address"
        }
      ],
      "name": "voters",
      "outputs": [
        {
          "internalType": "bool",
          "name": "",
          "type": "bool"
        }
      ],
      "payable": false,
      "stateMutability": "view",
      "type": "function"
    },
    {
      "constant": true,
      "inputs": [
        {
          "internalType": "address",
          "name": "",
          "type": "address"
        },
        {
          "internalType": "uint256",
          "name": "",
          "type": "uint256"
        }
      ],
      "name": "votes",
      "outputs": [
        {
          "internalType": "bool",
          "name": "",
          "type": "bool"
        }
      ],
      "payable": false,
      "stateMutability": "view",
      "type": "function"
    },
    {
      "constant": true,
      "inputs": [
        {
          "internalType": "uint256",
          "name": "id",
          "type": "uint256"
        }
      ],
      "name": "getBallot",
      "outputs": [
        {
          "components": [
            {
              "internalType": "uint256",
              "name": "id",
              "type": "uint256"
            },
            {
              "internalType": "string",
              "name": "name",
              "type": "string"
            },
            {
              "components": [
                {
                  "internalType": "uint256",
                  "name": "id",
                  "type": "uint256"
                },
                {
                  "internalType": "string",
                  "name": "name",
                  "type": "string"
                },
                {
                  "internalType": "uint256",
                  "name": "votes",
                  "type": "uint256"
                }
              ],
              "internalType": "struct Voting.Choice[]",
              "name": "choices",
              "type": "tuple[]"
            },
            {
              "internalType": "uint256",
              "name": "end",
              "type": "uint256"
            }
          ],
          "internalType": "struct Voting.Ballot",
          "name": "",
          "type": "tuple"
        }
      ],
      "payable": false,
      "stateMutability": "view",
      "type": "function"
    },
    {
      "constant": false,
      "inputs": [
        {
          "internalType": "address[]",
          "name": "_voters",
          "type": "address[]"
        }
      ],
      "name": "addVoters",
      "outputs": [],
      "payable": false,
      "stateMutability": "nonpayable",
      "type": "function"
    },
    {
      "constant": false,
      "inputs": [
        {
          "internalType": "string",
          "name": "name",
          "type": "string"
        },
        {
          "internalType": "string[]",
          "name": "_choices",
          "type": "string[]"
        },
        {
          "internalType": "uint256",
          "name": "offset",
          "type": "uint256"
        }
      ],
      "name": "createBallot",
      "outputs": [],
      "payable": false,
      "stateMutability": "nonpayable",
      "type": "function"
    },
    {
      "constant": false,
      "inputs": [
        {
          "internalType": "uint256",
          "name": "ballotId",
          "type": "uint256"
        },
        {
          "internalType": "uint256",
          "name": "choiceId",
          "type": "uint256"
        }
      ],
      "name": "vote",
      "outputs": [],
      "payable": false,
      "stateMutability": "nonpayable",
      "type": "function"
    },
    {
      "constant": true,
      "inputs": [
        {
          "internalType": "uint256",
          "name": "ballotId",
          "type": "uint256"
        }
      ],
      "name": "results",
      "outputs": [
        {
          "components": [
            {
              "internalType": "uint256",
              "name": "id",
              "type": "uint256"
            },
            {
              "internalType": "string",
              "name": "name",
              "type": "string"
            },
            {
              "internalType": "uint256",
              "name": "votes",
              "type": "uint256"
            }
          ],
          "internalType": "struct Voting.Choice[]",
          "name": "",
          "type": "tuple[]"
        }
      ],
      "payable": false,
      "stateMutability": "view",
      "type": "function"
    }
  ],
  "bytecode": "0x608060405234801561001057600080fd5b5033600360006101000a81548173ffffffffffffffffffffffffffffffffffffffff021916908373ffffffffffffffffffffffffffffffffffffffff160217905550611868806100616000396000f3fe608060405234801561001057600080fd5b506004361061009e5760003560e01c8063a3ec138d11610066578063a3ec138d1461016d578063b384abef1461019d578063dc6bfbb5146101b9578063f851a440146101d7578063f9d5ee75146101f55761009e565b80631b0c27da146100a357806320faae8e146100d35780635c632b38146100ef5780638203373a146101215780639f2524ee1461013d575b600080fd5b6100bd60048036036100b89190810190611020565b610225565b6040516100ca91906114b8565b60405180910390f35b6100ed60048036036100e89190810190610fa1565b6103a9565b005b61010960048036036101049190810190611020565b61057e565b604051610118939291906115d2565b60405180910390f35b61013b60048036036101369190810190610f5c565b610640565b005b61015760048036036101529190810190610f20565b61076a565b60405161016491906114da565b60405180910390f35b61018760048036036101829190810190610ef7565b610799565b60405161019491906114da565b60405180910390f35b6101b760048036036101b29190810190611049565b6107b9565b005b6101c16109f6565b6040516101ce91906115b7565b60405180910390f35b6101df6109fc565b6040516101ec919061149d565b60405180910390f35b61020f600480360361020a9190810190611020565b610a22565b60405161021c9190611595565b60405180910390f35b60606001600083815260200190815260200160002060030154421015610280576040517f08c379a000000000000000000000000000000000000000000000000000000000815260040161027790611575565b60405180910390fd5b60016000838152602001908152602001600020600201805480602002602001604051908101604052809291908181526020016000905b8282101561039e578382906000526020600020906003020160405180606001604052908160008201548152602001600182018054600181600116156101000203166002900480601f01602080910402602001604051908101604052809291908181526020018280546001816001161561010002031660029004801561037c5780601f106103515761010080835404028352916020019161037c565b820191906000526020600020905b81548152906001019060200180831161035f57829003601f168201915b50505050508152602001600282015481525050815260200190600101906102b6565b505050509050919050565b600360009054906101000a900473ffffffffffffffffffffffffffffffffffffffff1673ffffffffffffffffffffffffffffffffffffffff163373ffffffffffffffffffffffffffffffffffffffff1614610439576040517f08c379a000000000000000000000000000000000000000000000000000000000815260040161043090611535565b60405180910390fd5b60025460016000600254815260200190815260200160002060000181905550826001600060025481526020019081526020016000206001019080519060200190610484929190610c1a565b508042016001600060025481526020019081526020016000206003018190555060008090505b82518110156105665760016000600254815260200190815260200160002060020160405180606001604052808381526020018584815181106104e857fe5b6020026020010151815260200160008152509080600181540180825580915050906001820390600052602060002090600302016000909192909190915060008201518160000155602082015181600101908051906020019061054b929190610c9a565b506040820151816002015550505080806001019150506104aa565b50600260008154809291906001019190505550505050565b6001602052806000526040600020600091509050806000015490806001018054600181600116156101000203166002900480601f0160208091040260200160405190810160405280929190818152602001828054600181600116156101000203166002900480156106305780601f1061060557610100808354040283529160200191610630565b820191906000526020600020905b81548152906001019060200180831161061357829003601f168201915b5050505050908060030154905083565b600360009054906101000a900473ffffffffffffffffffffffffffffffffffffffff1673ffffffffffffffffffffffffffffffffffffffff163373ffffffffffffffffffffffffffffffffffffffff16146106d0576040517f08c379a00000000000000000000000000000000000000000000000000000000081526004016106c790611535565b60405180910390fd5b60008090505b828290508110156107655760016000808585858181106106f257fe5b90506020020160206107079190810190610ef7565b73ffffffffffffffffffffffffffffffffffffffff1673ffffffffffffffffffffffffffffffffffffffff16815260200190815260200160002060006101000a81548160ff02191690831515021790555080806001019150506106d6565b505050565b60046020528160005260406000206020528060005260406000206000915091509054906101000a900460ff1681565b60006020528060005260406000206000915054906101000a900460ff1681565b600115156000803373ffffffffffffffffffffffffffffffffffffffff1673ffffffffffffffffffffffffffffffffffffffff16815260200190815260200160002060009054906101000a900460ff1615151461084b576040517f08c379a000000000000000000000000000000000000000000000000000000000815260040161084290611555565b60405180910390fd5b60001515600460003373ffffffffffffffffffffffffffffffffffffffff1673ffffffffffffffffffffffffffffffffffffffff168152602001908152602001600020600084815260200190815260200160002060009054906101000a900460ff161515146108ef576040517f08c379a00000000000000000000000000000000000000000000000000000000081526004016108e6906114f5565b60405180910390fd5b60016000838152602001908152602001600020600301544210610947576040517f08c379a000000000000000000000000000000000000000000000000000000000815260040161093e90611515565b60405180910390fd5b6001600460003373ffffffffffffffffffffffffffffffffffffffff1673ffffffffffffffffffffffffffffffffffffffff168152602001908152602001600020600084815260200190815260200160002060006101000a81548160ff0219169083151502179055506001600083815260200190815260200160002060020181815481106109d157fe5b9060005260206000209060030201600201600081548092919060010191905055505050565b60025481565b600360009054906101000a900473ffffffffffffffffffffffffffffffffffffffff1681565b610a2a610d1a565b6001600083815260200190815260200160002060405180608001604052908160008201548152602001600182018054600181600116156101000203166002900480601f016020809104026020016040519081016040528092919081815260200182805460018160011615610100020316600290048015610aeb5780601f10610ac057610100808354040283529160200191610aeb565b820191906000526020600020905b815481529060010190602001808311610ace57829003601f168201915b5050505050815260200160028201805480602002602001604051908101604052809291908181526020016000905b82821015610c01578382906000526020600020906003020160405180606001604052908160008201548152602001600182018054600181600116156101000203166002900480601f016020809104026020016040519081016040528092919081815260200182805460018160011615610100020316600290048015610bdf5780601f10610bb457610100808354040283529160200191610bdf565b820191906000526020600020905b815481529060010190602001808311610bc257829003601f168201915b5050505050815260200160028201548152505081526020019060010190610b19565b5050505081526020016003820154815250509050919050565b828054600181600116156101000203166002900490600052602060002090601f016020900481019282601f10610c5b57805160ff1916838001178555610c89565b82800160010185558215610c89579182015b82811115610c88578251825591602001919060010190610c6d565b5b509050610c969190610d42565b5090565b828054600181600116156101000203166002900490600052602060002090601f016020900481019282601f10610cdb57805160ff1916838001178555610d09565b82800160010185558215610d09579182015b82811115610d08578251825591602001919060010190610ced565b5b509050610d169190610d42565b5090565b6040518060800160405280600081526020016060815260200160608152602001600081525090565b610d6491905b80821115610d60576000816000905550600101610d48565b5090565b90565b600081359050610d76816117f7565b92915050565b60008083601f840112610d8e57600080fd5b8235905067ffffffffffffffff811115610da757600080fd5b602083019150836020820283011115610dbf57600080fd5b9250929050565b600082601f830112610dd757600080fd5b8135610dea610de58261163d565b611610565b9150818183526020840193506020810190508360005b83811015610e305781358601610e168882610e3a565b845260208401935060208301925050600181019050610e00565b5050505092915050565b600082601f830112610e4b57600080fd5b8135610e5e610e5982611665565b611610565b91508082526020830160208301858383011115610e7a57600080fd5b610e858382846117a4565b50505092915050565b600082601f830112610e9f57600080fd5b8135610eb2610ead82611691565b611610565b91508082526020830160208301858383011115610ece57600080fd5b610ed98382846117a4565b50505092915050565b600081359050610ef18161180e565b92915050565b600060208284031215610f0957600080fd5b6000610f1784828501610d67565b91505092915050565b60008060408385031215610f3357600080fd5b6000610f4185828601610d67565b9250506020610f5285828601610ee2565b9150509250929050565b60008060208385031215610f6f57600080fd5b600083013567ffffffffffffffff811115610f8957600080fd5b610f9585828601610d7c565b92509250509250929050565b600080600060608486031215610fb657600080fd5b600084013567ffffffffffffffff811115610fd057600080fd5b610fdc86828701610e8e565b935050602084013567ffffffffffffffff811115610ff957600080fd5b61100586828701610dc6565b925050604061101686828701610ee2565b9150509250925092565b60006020828403121561103257600080fd5b600061104084828501610ee2565b91505092915050565b6000806040838503121561105c57600080fd5b600061106a85828601610ee2565b925050602061107b85828601610ee2565b9150509250929050565b6000611091838361142f565b905092915050565b6110a28161175c565b82525050565b60006110b3826116e8565b6110bd8185611729565b9350836020820285016110cf856116cd565b8060005b8581101561110b57848403895281516110ec8582611085565b94506110f78361170b565b925060208a019950506001810190506110d3565b50829750879550505050505092915050565b6000611128826116dd565b6111328185611718565b935083602082028501611144856116bd565b8060005b8581101561118057848403895281516111618582611085565b945061116c836116fe565b925060208a01995050600181019050611148565b50829750879550505050505092915050565b61119b8161176e565b82525050565b60006111ac826116f3565b6111b6818561173a565b93506111c68185602086016117b3565b6111cf816117e6565b840191505092915050565b60006111e5826116f3565b6111ef818561174b565b93506111ff8185602086016117b3565b611208816117e6565b840191505092915050565b600061122060258361174b565b91507f766f7465722063616e206f6e6c7920766f7465206f6e636520666f722061206260008301527f616c6c6f740000000000000000000000000000000000000000000000000000006020830152604082019050919050565b600061128660238361174b565b91507f63616e206f6e6c7920766f746520756e74696c2062616c6c6f7420656e64206460008301527f61746500000000000000000000000000000000000000000000000000000000006020830152604082019050919050565b60006112ec600a8361174b565b91507f6f6e6c792061646d696e000000000000000000000000000000000000000000006000830152602082019050919050565b600061132c60148361174b565b91507f6f6e6c7920766f746572732063616e20766f74650000000000000000000000006000830152602082019050919050565b600061136c602e8361174b565b91507f63616e6e6f7420736565207468652062616c6c6f7420726573756c742062656660008301527f6f72652062616c6c6f7420656e640000000000000000000000000000000000006020830152604082019050919050565b60006080830160008301516113dd600086018261147f565b50602083015184820360208601526113f582826111a1565b9150506040830151848203604086015261140f828261111d565b9150506060830151611424606086018261147f565b508091505092915050565b6000606083016000830151611447600086018261147f565b506020830151848203602086015261145f82826111a1565b9150506040830151611474604086018261147f565b508091505092915050565b6114888161179a565b82525050565b6114978161179a565b82525050565b60006020820190506114b26000830184611099565b92915050565b600060208201905081810360008301526114d281846110a8565b905092915050565b60006020820190506114ef6000830184611192565b92915050565b6000602082019050818103600083015261150e81611213565b9050919050565b6000602082019050818103600083015261152e81611279565b9050919050565b6000602082019050818103600083015261154e816112df565b9050919050565b6000602082019050818103600083015261156e8161131f565b9050919050565b6000602082019050818103600083015261158e8161135f565b9050919050565b600060208201905081810360008301526115af81846113c5565b905092915050565b60006020820190506115cc600083018461148e565b92915050565b60006060820190506115e7600083018661148e565b81810360208301526115f981856111da565b9050611608604083018461148e565b949350505050565b6000604051905081810181811067ffffffffffffffff8211171561163357600080fd5b8060405250919050565b600067ffffffffffffffff82111561165457600080fd5b602082029050602081019050919050565b600067ffffffffffffffff82111561167c57600080fd5b601f19601f8301169050602081019050919050565b600067ffffffffffffffff8211156116a857600080fd5b601f19601f8301169050602081019050919050565b6000819050602082019050919050565b6000819050602082019050919050565b600081519050919050565b600081519050919050565b600081519050919050565b6000602082019050919050565b6000602082019050919050565b600082825260208201905092915050565b600082825260208201905092915050565b600082825260208201905092915050565b600082825260208201905092915050565b60006117678261177a565b9050919050565b60008115159050919050565b600073ffffffffffffffffffffffffffffffffffffffff82169050919050565b6000819050919050565b82818337600083830152505050565b60005b838110156117d15780820151818401526020810190506117b6565b838111156117e0576000848401525b50505050565b6000601f19601f8301169050919050565b6118008161175c565b811461180b57600080fd5b50565b6118178161179a565b811461182257600080fd5b5056fea365627a7a723158205968f1ac9b344c7bcdf8f10f8b5488cea9520070b901cb841c6b4678598442ba6c6578706572696d656e74616cf564736f6c63430005110040",
  "source": "pragma solidity ^0.5.2;\npragma experimental ABIEncoderV2;\n\ncontract Voting {\n  mapping(address => bool) public voters;\n  struct Choice {\n    uint id;\n    string name;\n    uint votes;\n  }\n  struct Ballot {\n    uint id;\n    string name;\n    Choice[] choices;\n    uint end;\n  }\n  mapping(uint => Ballot) public ballots;\n  uint public nextBallotId;\n  address public admin;\n  mapping(address => mapping(uint => bool)) public votes;\n  \n  constructor() public {\n    admin = msg.sender;\n  }\n\n  function getBallot(uint id) external view returns(Ballot memory) {\n    return ballots[id];\n  }\n  \n  function addVoters(address[] calldata _voters) external onlyAdmin() {\n    for(uint i = 0; i < _voters.length; i++) {\n        voters[_voters[i]] = true;\n    }\n  }\n\n  function createBallot(\n    string memory name,\n    string[] memory _choices,\n    uint offset\n    ) public onlyAdmin() {\n      ballots[nextBallotId].id = nextBallotId;\n      ballots[nextBallotId].name = name;\n      ballots[nextBallotId].end = now + offset;\n      for(uint i = 0; i < _choices.length ; i++) {\n        ballots[nextBallotId].choices.push(Choice(i, _choices[i], 0));\n      }\n      nextBallotId++;\n  }\n\n  function vote(uint ballotId, uint choiceId) external {\n    require(voters[msg.sender] == true, 'only voters can vote');\n    require(votes[msg.sender][ballotId] == false, 'voter can only vote once for a ballot');\n    require(now < ballots[ballotId].end, 'can only vote until ballot end date');\n    votes[msg.sender][ballotId] = true;\n    ballots[ballotId].choices[choiceId].votes++;\n  }\n\n  //If `pragma experimental ABIEncoderV2`\n  function results(uint ballotId) \n    view \n    external \n    returns(Choice[] memory) {\n    require(now >= ballots[ballotId].end, 'cannot see the ballot result before ballot end');\n    return ballots[ballotId].choices;\n  }\n\n  //If no `pragma experimental ABIEncoderV2`\n  //function results(uint ballotId) \n  //  view \n  //  external \n  //  returns(uint[] memory, string[] memory, uint[]memory) {\n  //  require(now >= ballots[ballotId].end, 'can only see result after ballot end');\n  //  Choice[] storage choices = ballots[ballotId].choices;\n  //  uint[] memory ids = new uint[](choices.length);\n  //  string[] memory names = new string[](choices.length);\n  //  uint[] memory votes = new uint[](choices.length);\n  //  for(uint i = 0; i < choices.length; i++) {\n  //    ids[i] = choices[i].id;\n  //    names[i] = choices[i].name;\n  //    votes[i] = choices[i].votes;\n  //  }\n  //  return(ids, names, votes);\n  //}\n\n  modifier onlyAdmin() {\n    require(msg.sender == admin, 'only admin');\n    _;\n  }\n}\n",
  "sourcePath": "/Users/ratimontreewat/Projects/tokenine/voting/contracts/Voting.sol",
  "compiler": {
    "name": "solc",
    "version": "0.5.17+commit.d19bba13.Emscripten.clang"
  },
  "schemaVersion": "3.3.4",
  "updatedAt": "2021-03-03T00:40:19.501Z",
  "networkType": "ethereum",
  "devdoc": {
    "methods": {}
  },
  "userdoc": {
    "methods": {}
  }
}